{
  "_format": "hh3-artifact-1",
  "contractName": "BasicToken",
  "sourceName": "contracts/BasicToken.sol",
  "abi": [
    {
      "inputs": [
        {
          "internalType": "uint256",
          "name": "_initialSupply",
          "type": "uint256"
        }
      ],
      "stateMutability": "nonpayable",
      "type": "constructor"
    },
    {
      "anonymous": false,
      "inputs": [
        {
          "indexed": true,
          "internalType": "address",
          "name": "from",
          "type": "address"
        },
        {
          "indexed": true,
          "internalType": "address",
          "name": "to",
          "type": "address"
        },
        {
          "indexed": false,
          "internalType": "uint256",
          "name": "value",
          "type": "uint256"
        }
      ],
      "name": "Transfer",
      "type": "event"
    },
    {
      "inputs": [
        {
          "internalType": "address",
          "name": "_owner",
          "type": "address"
        }
      ],
      "name": "balanceOf",
      "outputs": [
        {
          "internalType": "uint256",
          "name": "balance",
          "type": "uint256"
        }
      ],
      "stateMutability": "view",
      "type": "function"
    },
    {
      "inputs": [
        {
          "internalType": "address",
          "name": "",
          "type": "address"
        }
      ],
      "name": "balances",
      "outputs": [
        {
          "internalType": "uint256",
          "name": "",
          "type": "uint256"
        }
      ],
      "stateMutability": "view",
      "type": "function"
    },
    {
      "inputs": [],
      "name": "totalSupply",
      "outputs": [
        {
          "internalType": "uint256",
          "name": "",
          "type": "uint256"
        }
      ],
      "stateMutability": "view",
      "type": "function"
    },
    {
      "inputs": [
        {
          "internalType": "address",
          "name": "_to",
          "type": "address"
        },
        {
          "internalType": "uint256",
          "name": "_value",
          "type": "uint256"
        }
      ],
      "name": "transfer",
      "outputs": [
        {
          "internalType": "bool",
          "name": "success",
          "type": "bool"
        }
      ],
      "stateMutability": "nonpayable",
      "type": "function"
    }
  ],
  "bytecode": "0x6080604052348015600e575f5ffd5b50604051610389380380610389833981016040819052602b916076565b335f818152602081815260408083208590556001859055518481527fddf252ad1be2c89b69c2b068fc378daa952ba7f163c4a11628f55a4df523b3ef910160405180910390a350608c565b5f602082840312156085575f5ffd5b5051919050565b6102f0806100995f395ff3fe608060405234801561000f575f5ffd5b506004361061004a575f3560e01c806318160ddd1461004e57806327e235e31461006a57806370a0823114610089578063a9059cbb146100b1575b5f5ffd5b61005760015481565b6040519081526020015b60405180910390f35b610057610078366004610238565b5f6020819052908152604090205481565b610057610097366004610238565b6001600160a01b03165f9081526020819052604090205490565b6100c46100bf366004610258565b6100d4565b6040519015158152602001610061565b335f9081526020819052604081205482111561012e5760405162461bcd60e51b8152602060048201526014602482015273496e73756666696369656e742062616c616e636560601b60448201526064015b60405180910390fd5b6001600160a01b0383166101845760405162461bcd60e51b815260206004820152601f60248201527f43616e6e6f74207472616e7366657220746f207a65726f2061646472657373006044820152606401610125565b335f90815260208190526040812080548492906101a2908490610294565b90915550506001600160a01b0383165f90815260208190526040812080548492906101ce9084906102a7565b90915550506040518281526001600160a01b0384169033907fddf252ad1be2c89b69c2b068fc378daa952ba7f163c4a11628f55a4df523b3ef9060200160405180910390a35060015b92915050565b80356001600160a01b0381168114610233575f5ffd5b919050565b5f60208284031215610248575f5ffd5b6102518261021d565b9392505050565b5f5f60408385031215610269575f5ffd5b6102728361021d565b946020939093013593505050565b634e487b7160e01b5f52601160045260245ffd5b8181038181111561021757610217610280565b808201808211156102175761021761028056fea26469706673582212204f5c0a73d55a6e0419a67e631afc6139a0bc73f60d6d1890f12f2691864b105964736f6c634300081e0033",
  "linkReferences": {},
  "deployedLinkReferences": {},
  "immutableReferences": {},
  "inputSourceName": "project/contracts/BasicToken.sol",
  "buildInfoId": "solc-0_8_30-14e19153c407a16b12bc2c11f1988ce366d80215"
}